:0A0000000C942A000C9400000C94EC
:10000A0000000C9400000C9400000C9400000C9466
:10001A0000000C9400000C9400000C9400000C9456
:10002A0000000C9400000C9400000C9400000C9446
:10003A0000000C9400000C9400000C9400000C9436
:10004A0000000C9400000C940000F894EE27ECBB1E
:10005A00F1E0FBBFEBBFE5BF8DE0A2E0BB27ED936C
:10006A008A95E9F780E098E0A0E6ED930197E9F731
:10007A00EFE5EDBFE8E0EEBFC0E6D2E00C94B900D0
:10008A00A2D00B30E2E01E076CF4979884E39BE061
:10009A000197F1F7979A84E39BE00197F1F70F5FD5
:1000AA001F4FEFCF5EC08FD00632E1E01E076CF41F
:1000BA0097988CEE93E10197F1F7979A8CEE93E17A
:1000CA000197F1F70F5F1F4FEFCF4BC07CD00A3477
:1000DA00E1E01E076CF4979881EC91E10197F1F742
:1000EA00979A81EC91E10197F1F70F5F1F4FEFCFDC
:1000FA0038C069D00D35E1E01E076CF4979888EC9A
:10010A0090E10197F1F7979A88EC90E10197F1F75E
:10011A000F5F1F4FEFCF25C056D0083BE1E01E0707
:10012A006CF4979880E59DE00197F1F7979A80E53E
:10013A009DE00197F1F70F5F1F4FEFCF12C043D039
:10014A000E3EE1E01E076CF497988CED9BE0019758
:10015A00F1F7979A8CED9BE00197F1F70F5F1F4F2C
:10016A00EFCF099119910895E0E0EABBEBBBE7BB39
:10017A00E8BBE4BBE5BBEFEFE1BBE0E0E2BBE3BF1A
:10018A00E2BFECBFEFBDEEBDEDBDECBDE7BDE6BD28
:10019A00EBBDEABDE9BDE8BDE2BDE5BDE4BDE3BD39
:1001AA00E9BFE5BFE4BFEAB9E0E8E8B9E0E0E0BFEB
:1001BA00E6B9EDB9E6BFB0DFC2DF62DF74DF86DF22
:1001CA0098DFF9CFFFCF1A930A9300E010E0089561
:00000001FF
